{
  "contractName": "DeveloperProductFactory",
  "abi": [
    {
      "inputs": [
        {
          "internalType": "uint256",
          "name": "_productCreationFees",
          "type": "uint256"
        }
      ],
      "stateMutability": "nonpayable",
      "type": "constructor"
    },
    {
      "anonymous": false,
      "inputs": [
        {
          "indexed": true,
          "internalType": "uint256",
          "name": "productId",
          "type": "uint256"
        },
        {
          "indexed": true,
          "internalType": "address",
          "name": "newProductAddress",
          "type": "address"
        }
      ],
      "name": "DeveloperProductCreated",
      "type": "event"
    },
    {
      "anonymous": false,
      "inputs": [
        {
          "indexed": true,
          "internalType": "uint256",
          "name": "productCreationFees",
          "type": "uint256"
        }
      ],
      "name": "DeveloperProductFactoryInitialized",
      "type": "event"
    },
    {
      "anonymous": false,
      "inputs": [
        {
          "indexed": true,
          "internalType": "address",
          "name": "previousOwner",
          "type": "address"
        },
        {
          "indexed": true,
          "internalType": "address",
          "name": "newOwner",
          "type": "address"
        }
      ],
      "name": "OwnershipTransferred",
      "type": "event"
    },
    {
      "anonymous": false,
      "inputs": [
        {
          "indexed": false,
          "internalType": "string",
          "name": "productName",
          "type": "string"
        },
        {
          "indexed": true,
          "internalType": "uint256",
          "name": "productPrice",
          "type": "uint256"
        }
      ],
      "name": "ProductDetails",
      "type": "event"
    },
    {
      "inputs": [
        {
          "internalType": "address",
          "name": "",
          "type": "address"
        }
      ],
      "name": "deployedProductContracts",
      "outputs": [
        {
          "internalType": "contract Product",
          "name": "",
          "type": "address"
        }
      ],
      "stateMutability": "view",
      "type": "function",
      "constant": true
    },
    {
      "inputs": [],
      "name": "owner",
      "outputs": [
        {
          "internalType": "address",
          "name": "",
          "type": "address"
        }
      ],
      "stateMutability": "view",
      "type": "function",
      "constant": true
    },
    {
      "inputs": [],
      "name": "productCreationFees",
      "outputs": [
        {
          "internalType": "uint256",
          "name": "",
          "type": "uint256"
        }
      ],
      "stateMutability": "view",
      "type": "function",
      "constant": true
    },
    {
      "inputs": [
        {
          "internalType": "uint256",
          "name": "",
          "type": "uint256"
        }
      ],
      "name": "productToOwnerName",
      "outputs": [
        {
          "internalType": "string",
          "name": "",
          "type": "string"
        }
      ],
      "stateMutability": "view",
      "type": "function",
      "constant": true
    },
    {
      "inputs": [
        {
          "internalType": "uint256",
          "name": "",
          "type": "uint256"
        }
      ],
      "name": "products",
      "outputs": [
        {
          "internalType": "address",
          "name": "",
          "type": "address"
        }
      ],
      "stateMutability": "view",
      "type": "function",
      "constant": true
    },
    {
      "inputs": [],
      "name": "renounceOwnership",
      "outputs": [],
      "stateMutability": "nonpayable",
      "type": "function"
    },
    {
      "inputs": [
        {
          "internalType": "address",
          "name": "newOwner",
          "type": "address"
        }
      ],
      "name": "transferOwnership",
      "outputs": [],
      "stateMutability": "nonpayable",
      "type": "function"
    },
    {
      "inputs": [
        {
          "internalType": "string",
          "name": "productName",
          "type": "string"
        },
        {
          "internalType": "uint256",
          "name": "productPrice",
          "type": "uint256"
        },
        {
          "internalType": "string",
          "name": "productOwnerName",
          "type": "string"
        }
      ],
      "name": "createProduct",
      "outputs": [
        {
          "internalType": "uint256",
          "name": "productId",
          "type": "uint256"
        },
        {
          "internalType": "address",
          "name": "newProductAddress",
          "type": "address"
        }
      ],
      "stateMutability": "payable",
      "type": "function",
      "payable": true
    },
    {
      "inputs": [
        {
          "internalType": "address",
          "name": "_productAddress",
          "type": "address"
        }
      ],
      "name": "getProductDetails",
      "outputs": [
        {
          "internalType": "string",
          "name": "productName",
          "type": "string"
        },
        {
          "internalType": "uint256",
          "name": "price",
          "type": "uint256"
        }
      ],
      "stateMutability": "view",
      "type": "function",
      "constant": true
    },
    {
      "inputs": [
        {
          "internalType": "address",
          "name": "_productAddress",
          "type": "address"
        }
      ],
      "name": "getProductUsers",
      "outputs": [
        {
          "internalType": "string[]",
          "name": "",
          "type": "string[]"
        }
      ],
      "stateMutability": "view",
      "type": "function",
      "constant": true
    },
    {
      "inputs": [
        {
          "internalType": "address",
          "name": "_productAddress",
          "type": "address"
        },
        {
          "internalType": "string",
          "name": "_productOwnerName",
          "type": "string"
        }
      ],
      "name": "buyProduct",
      "outputs": [
        {
          "internalType": "bool",
          "name": "result",
          "type": "bool"
        }
      ],
      "stateMutability": "payable",
      "type": "function",
      "payable": true
    },
    {
      "inputs": [],
      "name": "getProductAddress",
      "outputs": [
        {
          "internalType": "address[]",
          "name": "",
          "type": "address[]"
        }
      ],
      "stateMutability": "view",
      "type": "function",
      "constant": true
    }
  ],
  "bytecode": "0x60806040523480156200001157600080fd5b506040516200307e3803806200307e833981810160405281019062000037919062000143565b6000620000496200012460201b60201c565b9050806000806101000a81548173ffffffffffffffffffffffffffffffffffffffff021916908373ffffffffffffffffffffffffffffffffffffffff1602179055508073ffffffffffffffffffffffffffffffffffffffff16600073ffffffffffffffffffffffffffffffffffffffff167f8be0079c531659141344cd1fd0a4f28419497f9722a3daafe3b4186f6b6457e060405160405180910390a350806001819055506001547ff131e908df1a83c4edebd509463875b188fb910fa1ee73848f65ea3e905e51cf60405160405180910390a25062000193565b600033905090565b6000815190506200013d8162000179565b92915050565b6000602082840312156200015657600080fd5b600062000166848285016200012c565b91505092915050565b6000819050919050565b62000184816200016f565b81146200019057600080fd5b50565b612edb80620001a36000396000f3fe608060405260043610620000b65760003560e01c8063dee84751116200006d578063dee847511462000202578063f1a62d141462000238578063f2fde38b146200027c578063f34e6bd414620002aa578063f8a6a45814620002ee578063ff38ec0f146200031e57620000b6565b806306a4169214620000bb5780636c977c3214620000ff578063715018a6146200012f5780637acc0b2014620001495780638da5cb5b146200018d578063bd8ce22c14620001bd575b600080fd5b348015620000c857600080fd5b50620000e76004803603810190620000e191906200119e565b62000355565b604051620000f69190620017f0565b60405180910390f35b3480156200010c57600080fd5b50620001176200044a565b604051620001269190620017cc565b60405180910390f35b3480156200013c57600080fd5b5062000147620004da565b005b3480156200015657600080fd5b506200017560048036038101906200016f919062001362565b62000632565b60405162000184919062001737565b60405180910390f35b3480156200019a57600080fd5b50620001a56200066f565b604051620001b4919062001737565b60405180910390f35b348015620001ca57600080fd5b50620001e96004803603810190620001e391906200119e565b62000698565b604051620001f992919062001872565b60405180910390f35b6200022060048036038101906200021a9190620011ca565b62000812565b6040516200022f919062001814565b60405180910390f35b3480156200024557600080fd5b506200026460048036038101906200025e919062001362565b62000914565b6040516200027391906200184e565b60405180910390f35b3480156200028957600080fd5b50620002a86004803603810190620002a291906200119e565b620009c8565b005b348015620002b757600080fd5b50620002d66004803603810190620002d091906200119e565b62000b92565b604051620002e5919062001831565b60405180910390f35b348015620002fb57600080fd5b506200030662000bc5565b6040516200031591906200192e565b60405180910390f35b6200033c6004803603810190620003369190620012da565b62000bcb565b6040516200034c9291906200194b565b60405180910390f35b60606000600560008473ffffffffffffffffffffffffffffffffffffffff1673ffffffffffffffffffffffffffffffffffffffff16815260200190815260200160002060009054906101000a900473ffffffffffffffffffffffffffffffffffffffff1690508073ffffffffffffffffffffffffffffffffffffffff1663533906716040518163ffffffff1660e01b815260040160006040518083038186803b1580156200040257600080fd5b505afa15801562000417573d6000803e3d6000fd5b505050506040513d6000823e3d601f19601f8201168201806040525081019062000442919062001224565b915050919050565b60606002805480602002602001604051908101604052809291908181526020018280548015620004d057602002820191906000526020600020905b8160009054906101000a900473ffffffffffffffffffffffffffffffffffffffff1673ffffffffffffffffffffffffffffffffffffffff168152602001906001019080831162000485575b5050505050905090565b620004e462000ea7565b73ffffffffffffffffffffffffffffffffffffffff1660008054906101000a900473ffffffffffffffffffffffffffffffffffffffff1673ffffffffffffffffffffffffffffffffffffffff161462000574576040517f08c379a00000000000000000000000000000000000000000000000000000000081526004016200056b90620018ea565b60405180910390fd5b600073ffffffffffffffffffffffffffffffffffffffff1660008054906101000a900473ffffffffffffffffffffffffffffffffffffffff1673ffffffffffffffffffffffffffffffffffffffff167f8be0079c531659141344cd1fd0a4f28419497f9722a3daafe3b4186f6b6457e060405160405180910390a360008060006101000a81548173ffffffffffffffffffffffffffffffffffffffff021916908373ffffffffffffffffffffffffffffffffffffffff160217905550565b600281815481106200064057fe5b906000526020600020016000915054906101000a900473ffffffffffffffffffffffffffffffffffffffff1681565b60008060009054906101000a900473ffffffffffffffffffffffffffffffffffffffff16905090565b6060600080600560008573ffffffffffffffffffffffffffffffffffffffff1673ffffffffffffffffffffffffffffffffffffffff16815260200190815260200160002060009054906101000a900473ffffffffffffffffffffffffffffffffffffffff1690508073ffffffffffffffffffffffffffffffffffffffff1663dfaf02216040518163ffffffff1660e01b815260040160006040518083038186803b1580156200074657600080fd5b505afa1580156200075b573d6000803e3d6000fd5b505050506040513d6000823e3d601f19601f8201168201806040525081019062000786919062001295565b92508073ffffffffffffffffffffffffffffffffffffffff1663542540ce6040518163ffffffff1660e01b815260040160206040518083038186803b158015620007cf57600080fd5b505afa158015620007e4573d6000803e3d6000fd5b505050506040513d601f19601f820116820180604052508101906200080a91906200138e565b915050915091565b600080600560008573ffffffffffffffffffffffffffffffffffffffff1673ffffffffffffffffffffffffffffffffffffffff16815260200190815260200160002060009054906101000a900473ffffffffffffffffffffffffffffffffffffffff1690508073ffffffffffffffffffffffffffffffffffffffff1663f67afb7c3433866040518463ffffffff1660e01b8152600401620008b592919062001754565b6020604051808303818588803b158015620008cf57600080fd5b505af1158015620008e4573d6000803e3d6000fd5b50505050506040513d601f19601f820116820180604052508101906200090b919062001269565b91505092915050565b60046020528060005260406000206000915090508054600181600116156101000203166002900480601f016020809104026020016040519081016040528092919081815260200182805460018160011615610100020316600290048015620009c05780601f106200099457610100808354040283529160200191620009c0565b820191906000526020600020905b815481529060010190602001808311620009a257829003601f168201915b505050505081565b620009d262000ea7565b73ffffffffffffffffffffffffffffffffffffffff1660008054906101000a900473ffffffffffffffffffffffffffffffffffffffff1673ffffffffffffffffffffffffffffffffffffffff161462000a62576040517f08c379a000000000000000000000000000000000000000000000000000000000815260040162000a5990620018ea565b60405180910390fd5b600073ffffffffffffffffffffffffffffffffffffffff168173ffffffffffffffffffffffffffffffffffffffff16141562000ad5576040517f08c379a000000000000000000000000000000000000000000000000000000000815260040162000acc90620018a6565b60405180910390fd5b8073ffffffffffffffffffffffffffffffffffffffff1660008054906101000a900473ffffffffffffffffffffffffffffffffffffffff1673ffffffffffffffffffffffffffffffffffffffff167f8be0079c531659141344cd1fd0a4f28419497f9722a3daafe3b4186f6b6457e060405160405180910390a3806000806101000a81548173ffffffffffffffffffffffffffffffffffffffff021916908373ffffffffffffffffffffffffffffffffffffffff16021790555050565b60056020528060005260406000206000915054906101000a900473ffffffffffffffffffffffffffffffffffffffff1681565b60015481565b60008062000bd86200066f565b73ffffffffffffffffffffffffffffffffffffffff163373ffffffffffffffffffffffffffffffffffffffff16141562000c49576040517f08c379a000000000000000000000000000000000000000000000000000000000815260040162000c40906200190c565b60405180910390fd5b600154341162000c90576040517f08c379a000000000000000000000000000000000000000000000000000000000815260040162000c8790620018c8565b60405180910390fd5b600062000ca96001543462000eaf90919063ffffffff16565b905060008133888860405162000cbf9062000f59565b62000ccd9392919062001788565b6040518091039082f090508015801562000ceb573d6000803e3d6000fd5b5090508092506002839080600181540180825580915050600190039060005260206000200160009091909190916101000a81548173ffffffffffffffffffffffffffffffffffffffff021916908373ffffffffffffffffffffffffffffffffffffffff16021790555080600560008573ffffffffffffffffffffffffffffffffffffffff1673ffffffffffffffffffffffffffffffffffffffff16815260200190815260200160002060006101000a81548173ffffffffffffffffffffffffffffffffffffffff021916908373ffffffffffffffffffffffffffffffffffffffff1602179055506001600280549050039350336003600086815260200190815260200160002060006101000a81548173ffffffffffffffffffffffffffffffffffffffff021916908373ffffffffffffffffffffffffffffffffffffffff1602179055508460046000868152602001908152602001600020908051906020019062000e5892919062000f67565b508273ffffffffffffffffffffffffffffffffffffffff16847f99cb1405c38ec72f885e10c03536f915ea4a0ede4cd8ebebaf234ae9798dedab60405160405180910390a35050935093915050565b600033905090565b600062000ef383836040518060400160405280601e81526020017f536166654d6174683a207375627472616374696f6e206f766572666c6f77000081525062000efb565b905092915050565b600083831115829062000f46576040517f08c379a000000000000000000000000000000000000000000000000000000000815260040162000f3d91906200184e565b60405180910390fd5b5060008385039050809150509392505050565b6112b88062001bee83390190565b828054600181600116156101000203166002900490600052602060002090601f016020900481019282601f1062000faa57805160ff191683800117855562000fdb565b8280016001018555821562000fdb579182015b8281111562000fda57825182559160200191906001019062000fbd565b5b50905062000fea919062000fee565b5090565b5b808211156200100957600081600090555060010162000fef565b5090565b6000813590506200101e8162001b9f565b92915050565b600082601f8301126200103657600080fd5b81516200104d6200104782620019a6565b62001978565b9150818183526020840193506020810190508360005b838110156200109757815186016200107c888262001114565b84526020840193506020830192505060018101905062001063565b5050505092915050565b600081519050620010b28162001bb9565b92915050565b600082601f830112620010ca57600080fd5b8135620010e1620010db82620019cf565b62001978565b91508082526020830160208301858383011115620010fe57600080fd5b6200110b83828462001b49565b50505092915050565b600082601f8301126200112657600080fd5b81516200113d6200113782620019cf565b62001978565b915080825260208301602083018583830111156200115a57600080fd5b6200116783828462001b58565b50505092915050565b600081359050620011818162001bd3565b92915050565b600081519050620011988162001bd3565b92915050565b600060208284031215620011b157600080fd5b6000620011c1848285016200100d565b91505092915050565b60008060408385031215620011de57600080fd5b6000620011ee858286016200100d565b925050602083013567ffffffffffffffff8111156200120c57600080fd5b6200121a85828601620010b8565b9150509250929050565b6000602082840312156200123757600080fd5b600082015167ffffffffffffffff8111156200125257600080fd5b620012608482850162001024565b91505092915050565b6000602082840312156200127c57600080fd5b60006200128c84828501620010a1565b91505092915050565b600060208284031215620012a857600080fd5b600082015167ffffffffffffffff811115620012c357600080fd5b620012d18482850162001114565b91505092915050565b600080600060608486031215620012f057600080fd5b600084013567ffffffffffffffff8111156200130b57600080fd5b6200131986828701620010b8565b93505060206200132c8682870162001170565b925050604084013567ffffffffffffffff8111156200134a57600080fd5b6200135886828701620010b8565b9150509250925092565b6000602082840312156200137557600080fd5b6000620013858482850162001170565b91505092915050565b600060208284031215620013a157600080fd5b6000620013b18482850162001187565b91505092915050565b6000620013c88383620013fb565b60208301905092915050565b6000620013e283836200152a565b905092915050565b620013f58162001ae5565b82525050565b620014068162001a9b565b82525050565b620014178162001a9b565b82525050565b60006200142a8262001a1c565b62001436818562001a57565b93506200144383620019fc565b8060005b838110156200147a5781516200145e8882620013ba565b97506200146b8362001a3d565b92505060018101905062001447565b5085935050505092915050565b6000620014948262001a27565b620014a0818562001a68565b935083602082028501620014b48562001a0c565b8060005b85811015620014f65784840389528151620014d48582620013d4565b9450620014e18362001a4a565b925060208a01995050600181019050620014b8565b50829750879550505050505092915050565b620015138162001aaf565b82525050565b620015248162001af9565b82525050565b6000620015378262001a32565b62001543818562001a79565b93506200155581856020860162001b58565b620015608162001b8e565b840191505092915050565b6000620015788262001a32565b62001584818562001a8a565b93506200159681856020860162001b58565b620015a18162001b8e565b840191505092915050565b6000620015bb60268362001a8a565b91507f4f776e61626c653a206e6577206f776e657220697320746865207a65726f206160008301527f64647265737300000000000000000000000000000000000000000000000000006020830152604082019050919050565b600062001623602a8362001a8a565b91507f446576656c6f70657250726f64756374466163746f72793a204e6f7420656e6f60008301527f75676820657468657273000000000000000000000000000000000000000000006020830152604082019050919050565b60006200168b60208362001a8a565b91507f4f776e61626c653a2063616c6c6572206973206e6f7420746865206f776e65726000830152602082019050919050565b6000620016cd60238362001a8a565b91507f446576656c6f70657250726f64756374466163746f72793a207265737472696360008301527f74656400000000000000000000000000000000000000000000000000000000006020830152604082019050919050565b620017318162001adb565b82525050565b60006020820190506200174e60008301846200140c565b92915050565b60006040820190506200176b6000830185620013ea565b81810360208301526200177f81846200156b565b90509392505050565b60006060820190506200179f6000830186620013ea565b8181036020830152620017b381856200156b565b9050620017c4604083018462001726565b949350505050565b60006020820190508181036000830152620017e881846200141d565b905092915050565b600060208201905081810360008301526200180c818462001487565b905092915050565b60006020820190506200182b600083018462001508565b92915050565b600060208201905062001848600083018462001519565b92915050565b600060208201905081810360008301526200186a81846200156b565b905092915050565b600060408201905081810360008301526200188e81856200156b565b90506200189f602083018462001726565b9392505050565b60006020820190508181036000830152620018c181620015ac565b9050919050565b60006020820190508181036000830152620018e38162001614565b9050919050565b6000602082019050818103600083015262001905816200167c565b9050919050565b600060208201905081810360008301526200192781620016be565b9050919050565b600060208201905062001945600083018462001726565b92915050565b600060408201905062001962600083018562001726565b6200197160208301846200140c565b9392505050565b6000604051905081810181811067ffffffffffffffff821117156200199c57600080fd5b8060405250919050565b600067ffffffffffffffff821115620019be57600080fd5b602082029050602081019050919050565b600067ffffffffffffffff821115620019e757600080fd5b601f19601f8301169050602081019050919050565b6000819050602082019050919050565b6000819050602082019050919050565b600081519050919050565b600081519050919050565b600081519050919050565b6000602082019050919050565b6000602082019050919050565b600082825260208201905092915050565b600082825260208201905092915050565b600082825260208201905092915050565b600082825260208201905092915050565b600062001aa88262001abb565b9050919050565b60008115159050919050565b600073ffffffffffffffffffffffffffffffffffffffff82169050919050565b6000819050919050565b600062001af28262001b21565b9050919050565b600062001b068262001b0d565b9050919050565b600062001b1a8262001abb565b9050919050565b600062001b2e8262001b35565b9050919050565b600062001b428262001abb565b9050919050565b82818337600083830152505050565b60005b8381101562001b7857808201518184015260208101905062001b5b565b8381111562001b88576000848401525b50505050565b6000601f19601f8301169050919050565b62001baa8162001a9b565b811462001bb657600080fd5b50565b62001bc48162001aaf565b811462001bd057600080fd5b50565b62001bde8162001adb565b811462001bea57600080fd5b5056fe6080604052604051620012b8380380620012b8833981810160405281019062000029919062000320565b600073ffffffffffffffffffffffffffffffffffffffff168373ffffffffffffffffffffffffffffffffffffffff1614156200009c576040517f08c379a000000000000000000000000000000000000000000000000000000000815260040162000093906200045b565b60405180910390fd5b60003411620000e2576040517f08c379a0000000000000000000000000000000000000000000000000000000008152600401620000d99062000439565b60405180910390fd5b826000806101000a81548173ffffffffffffffffffffffffffffffffffffffff021916908373ffffffffffffffffffffffffffffffffffffffff16021790555033600160006101000a81548173ffffffffffffffffffffffffffffffffffffffff021916908373ffffffffffffffffffffffffffffffffffffffff16021790555081600290805190602001906200017b929190620001f0565b50806003819055503460008054906101000a900473ffffffffffffffffffffffffffffffffffffffff1673ffffffffffffffffffffffffffffffffffffffff167f8251ca8e4b583a0e3a2ee4c1f22b424bdfd057bc5449b2041ba41d06641025a560405160405180910390a350505062000591565b828054600181600116156101000203166002900490600052602060002090601f016020900481019282601f106200023357805160ff191683800117855562000264565b8280016001018555821562000264579182015b828111156200026357825182559160200191906001019062000246565b5b50905062000273919062000277565b5090565b5b808211156200029257600081600090555060010162000278565b5090565b600081519050620002a7816200055d565b92915050565b600082601f830112620002bf57600080fd5b8151620002d6620002d082620004ab565b6200047d565b91508082526020830160208301858383011115620002f357600080fd5b6200030083828462000527565b50505092915050565b6000815190506200031a8162000577565b92915050565b6000806000606084860312156200033657600080fd5b6000620003468682870162000296565b935050602084015167ffffffffffffffff8111156200036457600080fd5b6200037286828701620002ad565b9250506040620003858682870162000309565b9150509250925092565b60006200039e602183620004d8565b91507f50726f647563743a20616d6f756e742067726561746572207468616e207a657260008301527f6f000000000000000000000000000000000000000000000000000000000000006020830152604082019050919050565b600062000406601e83620004d8565b91507f50726f647563743a20496e76616c6964206f776e6572206164647265737300006000830152602082019050919050565b6000602082019050818103600083015262000454816200038f565b9050919050565b600060208201905081810360008301526200047681620003f7565b9050919050565b6000604051905081810181811067ffffffffffffffff82111715620004a157600080fd5b8060405250919050565b600067ffffffffffffffff821115620004c357600080fd5b601f19601f8301169050602081019050919050565b600082825260208201905092915050565b6000620004f682620004fd565b9050919050565b600073ffffffffffffffffffffffffffffffffffffffff82169050919050565b6000819050919050565b60005b83811015620005475780820151818401526020810190506200052a565b8381111562000557576000848401525b50505050565b6200056881620004e9565b81146200057457600080fd5b50565b62000582816200051d565b81146200058e57600080fd5b50565b610d1780620005a16000396000f3fe6080604052600436106100865760003560e01c80639497d3ae116100595780639497d3ae14610137578063c45a015514610162578063c935a2411461018d578063dfaf0221146101ca578063f67afb7c146101f557610086565b8063533906711461008b578063542540ce146100b65780637f7650eb146100e15780638da5cb5b1461010c575b600080fd5b34801561009757600080fd5b506100a0610225565b6040516100ad9190610a9f565b60405180910390f35b3480156100c257600080fd5b506100cb61030e565b6040516100d89190610b3e565b60405180910390f35b3480156100ed57600080fd5b506100f6610318565b6040516101039190610adc565b60405180910390f35b34801561011857600080fd5b506101216103b6565b60405161012e9190610a84565b60405180910390f35b34801561014357600080fd5b5061014c6103da565b6040516101599190610b3e565b60405180910390f35b34801561016e57600080fd5b506101776103e0565b6040516101849190610a84565b60405180910390f35b34801561019957600080fd5b506101b460048036038101906101af919061088d565b610406565b6040516101c19190610adc565b60405180910390f35b3480156101d657600080fd5b506101df6104bf565b6040516101ec9190610adc565b60405180910390f35b61020f600480360381019061020a9190610839565b610561565b60405161021c9190610ac1565b60405180910390f35b60606005805480602002602001604051908101604052809291908181526020016000905b82821015610305578382906000526020600020018054600181600116156101000203166002900480601f0160208091040260200160405190810160405280929190818152602001828054600181600116156101000203166002900480156102f15780601f106102c6576101008083540402835291602001916102f1565b820191906000526020600020905b8154815290600101906020018083116102d457829003601f168201915b505050505081526020019060010190610249565b50505050905090565b6000600354905090565b60028054600181600116156101000203166002900480601f0160208091040260200160405190810160405280929190818152602001828054600181600116156101000203166002900480156103ae5780601f10610383576101008083540402835291602001916103ae565b820191906000526020600020905b81548152906001019060200180831161039157829003601f168201915b505050505081565b60008054906101000a900473ffffffffffffffffffffffffffffffffffffffff1681565b60035481565b600160009054906101000a900473ffffffffffffffffffffffffffffffffffffffff1681565b6005818154811061041357fe5b906000526020600020016000915090508054600181600116156101000203166002900480601f0160208091040260200160405190810160405280929190818152602001828054600181600116156101000203166002900480156104b75780601f1061048c576101008083540402835291602001916104b7565b820191906000526020600020905b81548152906001019060200180831161049a57829003601f168201915b505050505081565b606060028054600181600116156101000203166002900480601f0160208091040260200160405190810160405280929190818152602001828054600181600116156101000203166002900480156105575780601f1061052c57610100808354040283529160200191610557565b820191906000526020600020905b81548152906001019060200180831161053a57829003601f168201915b5050505050905090565b600060035434146105a7576040517f08c379a000000000000000000000000000000000000000000000000000000000815260040161059e90610afe565b60405180910390fd5b60008054906101000a900473ffffffffffffffffffffffffffffffffffffffff1673ffffffffffffffffffffffffffffffffffffffff163373ffffffffffffffffffffffffffffffffffffffff161415610636576040517f08c379a000000000000000000000000000000000000000000000000000000000815260040161062d90610b1e565b60405180910390fd5b6004839080600181540180825580915050600190039060005260206000200160009091909190916101000a81548173ffffffffffffffffffffffffffffffffffffffff021916908373ffffffffffffffffffffffffffffffffffffffff1602179055506005829080600181540180825580915050600190039060005260206000200160009091909190915090805190602001906106d492919061071e565b50600033905060008173ffffffffffffffffffffffffffffffffffffffff166108fc349081150290604051600060405180830381858888f193505050509050809250505092915050565b828054600181600116156101000203166002900490600052602060002090601f016020900481019282601f1061075f57805160ff191683800117855561078d565b8280016001018555821561078d579182015b8281111561078c578251825591602001919060010190610771565b5b50905061079a919061079e565b5090565b5b808211156107b757600081600090555060010161079f565b5090565b6000813590506107ca81610cb3565b92915050565b600082601f8301126107e157600080fd5b81356107f46107ef82610b86565b610b59565b9150808252602083016020830185838301111561081057600080fd5b61081b838284610c60565b50505092915050565b60008135905061083381610cca565b92915050565b6000806040838503121561084c57600080fd5b600061085a858286016107bb565b925050602083013567ffffffffffffffff81111561087757600080fd5b610883858286016107d0565b9150509250929050565b60006020828403121561089f57600080fd5b60006108ad84828501610824565b91505092915050565b60006108c2838361095d565b905092915050565b6108d381610c18565b82525050565b60006108e482610bc2565b6108ee8185610be5565b93508360208202850161090085610bb2565b8060005b8581101561093c578484038952815161091d85826108b6565b945061092883610bd8565b925060208a01995050600181019050610904565b50829750879550505050505092915050565b61095781610c2a565b82525050565b600061096882610bcd565b6109728185610bf6565b9350610982818560208601610c6f565b61098b81610ca2565b840191505092915050565b60006109a182610bcd565b6109ab8185610c07565b93506109bb818560208601610c6f565b6109c481610ca2565b840191505092915050565b60006109dc601b83610c07565b91507f50726f647563743a496e73756666696369656e742066756e64732e00000000006000830152602082019050919050565b6000610a1c602483610c07565b91507f50726f647563743a4f776e65722063616e6e6f7420627579207468652070726f60008301527f64756374000000000000000000000000000000000000000000000000000000006020830152604082019050919050565b610a7e81610c56565b82525050565b6000602082019050610a9960008301846108ca565b92915050565b60006020820190508181036000830152610ab981846108d9565b905092915050565b6000602082019050610ad6600083018461094e565b92915050565b60006020820190508181036000830152610af68184610996565b905092915050565b60006020820190508181036000830152610b17816109cf565b9050919050565b60006020820190508181036000830152610b3781610a0f565b9050919050565b6000602082019050610b536000830184610a75565b92915050565b6000604051905081810181811067ffffffffffffffff82111715610b7c57600080fd5b8060405250919050565b600067ffffffffffffffff821115610b9d57600080fd5b601f19601f8301169050602081019050919050565b6000819050602082019050919050565b600081519050919050565b600081519050919050565b6000602082019050919050565b600082825260208201905092915050565b600082825260208201905092915050565b600082825260208201905092915050565b6000610c2382610c36565b9050919050565b60008115159050919050565b600073ffffffffffffffffffffffffffffffffffffffff82169050919050565b6000819050919050565b82818337600083830152505050565b60005b83811015610c8d578082015181840152602081019050610c72565b83811115610c9c576000848401525b50505050565b6000601f19601f8301169050919050565b610cbc81610c18565b8114610cc757600080fd5b50565b610cd381610c56565b8114610cde57600080fd5b5056fea2646970667358221220888827e07b2a4d4140069a5f7004747dfbc63504d0e6ce15ba502015dc813e0264736f6c634300060c0033a2646970667358221220e083bd99845aa67848f6f655849c3912299dacedcc650e0fe47e67bc5960b04b64736f6c634300060c0033",
  "immutableReferences": {},
  "source": "// SPDX-License-Identifier: MIT\n\npragma solidity >0.4.0 <0.7.0;\npragma experimental ABIEncoderV2;\n\nimport \"./Product.sol\";\nimport \"../node_modules/@openzeppelin/contracts/math/SafeMath.sol\";\nimport \"../node_modules/@openzeppelin/contracts/access/Ownable.sol\";\n\ncontract DeveloperProductFactory is Ownable {\n\n    using SafeMath for uint;\n    uint public productCreationFees;\n    address[] public products;\n    mapping(uint => address) private _productToOwner;\n    mapping(uint => string)public productToOwnerName;\n    mapping(address => Product)public deployedProductContracts;\n    event DeveloperProductFactoryInitialized(uint indexed productCreationFees);\n    event DeveloperProductCreated(uint indexed productId, address indexed newProductAddress);\n    event ProductDetails(string productName, uint indexed productPrice);\n\n    constructor(uint _productCreationFees) public {\n        productCreationFees = _productCreationFees;\n        emit DeveloperProductFactoryInitialized(productCreationFees);\n    }\n\n    modifier notTheOwner(){\n        require(msg.sender != owner(),\"DeveloperProductFactory: restricted\");\n        _;\n    }\n\n    function createProduct(string memory productName , uint productPrice , string memory productOwnerName) external notTheOwner  payable returns(uint productId, address newProductAddress) {\n        require(msg.value > productCreationFees,\"DeveloperProductFactory: Not enough ethers\");\n        uint productReward = msg.value.sub(productCreationFees);\n        Product  newProduct = new Product{value:productReward}(msg.sender , productName , productPrice);\n        newProductAddress = address(newProduct);\n        products.push(newProductAddress);\n        deployedProductContracts[newProductAddress] = newProduct;\n        productId = products.length - 1;\n        _productToOwner[productId] = msg.sender;\n        productToOwnerName[productId] = productOwnerName;\n        emit DeveloperProductCreated(productId, newProductAddress);\n    }\n\n    function getProductDetails(address _productAddress) public view returns(string memory productName , uint price){\n        Product checkProduct = deployedProductContracts[_productAddress];\n        productName = checkProduct.getProductName();\n        price = checkProduct.getProductPrice();\n        //emit ProductDetails(productName , price);\n    }\n\n    function getProductUsers(address _productAddress) public view returns(string[] memory){\n        Product checkProduct = deployedProductContracts[_productAddress];\n        return checkProduct.getProductUsers();\n    }\n\n    function buyProduct(address _productAddress , string memory _productOwnerName) public payable returns(bool result){\n        Product getProduct = deployedProductContracts[_productAddress];\n        result = getProduct.addUserProduct{value:msg.value}(msg.sender , _productOwnerName);\n    }\n\n    function getProductAddress() public view returns(address[] memory){\n        return products;\n    }\n\n}\n",
  "sourcePath": "C:/Users/Patterson Thamba/Desktop/Dapp-II-master/IndyDevs Project/contracts/DeveloperProductFactory.sol",
  "compiler": {
    "name": "solc",
    "version": "0.6.12+commit.27d51765.Emscripten.clang"
  },
  "schemaVersion": "3.2.3",
  "updatedAt": "2020-08-15T21:32:49.639Z",
  "networkType": "ethereum",
  "devdoc": {
    "kind": "dev",
    "methods": {
      "owner()": {
        "details": "Returns the address of the current owner."
      },
      "renounceOwnership()": {
        "details": "Leaves the contract without owner. It will not be possible to call `onlyOwner` functions anymore. Can only be called by the current owner. NOTE: Renouncing ownership will leave the contract without an owner, thereby removing any functionality that is only available to the owner."
      },
      "transferOwnership(address)": {
        "details": "Transfers ownership of the contract to a new account (`newOwner`). Can only be called by the current owner."
      }
    },
    "version": 1
  },
  "userdoc": {
    "kind": "user",
    "methods": {},
    "version": 1
  }
}