{
  "contractName": "Product",
  "abi": [
    {
      "inputs": [
        {
          "internalType": "address",
          "name": "_owner",
          "type": "address"
        },
        {
          "internalType": "string",
          "name": "_productName",
          "type": "string"
        },
        {
          "internalType": "uint256",
          "name": "_productPrice",
          "type": "uint256"
        }
      ],
      "stateMutability": "payable",
      "type": "constructor"
    },
    {
      "anonymous": false,
      "inputs": [
        {
          "indexed": true,
          "internalType": "address",
          "name": "owner",
          "type": "address"
        },
        {
          "indexed": true,
          "internalType": "uint256",
          "name": "surveyReward",
          "type": "uint256"
        }
      ],
      "name": "ProductInitialized",
      "type": "event"
    },
    {
      "inputs": [],
      "name": "factory",
      "outputs": [
        {
          "internalType": "address",
          "name": "",
          "type": "address"
        }
      ],
      "stateMutability": "view",
      "type": "function"
    },
    {
      "inputs": [],
      "name": "owner",
      "outputs": [
        {
          "internalType": "address",
          "name": "",
          "type": "address"
        }
      ],
      "stateMutability": "view",
      "type": "function"
    },
    {
      "inputs": [
        {
          "internalType": "uint256",
          "name": "",
          "type": "uint256"
        }
      ],
      "name": "productAccountNames",
      "outputs": [
        {
          "internalType": "string",
          "name": "",
          "type": "string"
        }
      ],
      "stateMutability": "view",
      "type": "function"
    },
    {
      "inputs": [],
      "name": "productName",
      "outputs": [
        {
          "internalType": "string",
          "name": "",
          "type": "string"
        }
      ],
      "stateMutability": "view",
      "type": "function"
    },
    {
      "inputs": [],
      "name": "productPrice",
      "outputs": [
        {
          "internalType": "uint256",
          "name": "",
          "type": "uint256"
        }
      ],
      "stateMutability": "view",
      "type": "function"
    },
    {
      "inputs": [
        {
          "internalType": "address",
          "name": "_userAddress",
          "type": "address"
        },
        {
          "internalType": "string",
          "name": "_userAccount",
          "type": "string"
        }
      ],
      "name": "addUserProduct",
      "outputs": [
        {
          "internalType": "bool",
          "name": "",
          "type": "bool"
        }
      ],
      "stateMutability": "payable",
      "type": "function"
    },
    {
      "inputs": [],
      "name": "getProductName",
      "outputs": [
        {
          "internalType": "string",
          "name": "",
          "type": "string"
        }
      ],
      "stateMutability": "view",
      "type": "function"
    },
    {
      "inputs": [],
      "name": "getProductPrice",
      "outputs": [
        {
          "internalType": "uint256",
          "name": "",
          "type": "uint256"
        }
      ],
      "stateMutability": "view",
      "type": "function"
    },
    {
      "inputs": [],
      "name": "getProductUsers",
      "outputs": [
        {
          "internalType": "string[]",
          "name": "",
          "type": "string[]"
        }
      ],
      "stateMutability": "view",
      "type": "function"
    }
  ],
  "bytecode": "0x6080604052604051620012b8380380620012b8833981810160405281019062000029919062000320565b600073ffffffffffffffffffffffffffffffffffffffff168373ffffffffffffffffffffffffffffffffffffffff1614156200009c576040517f08c379a000000000000000000000000000000000000000000000000000000000815260040162000093906200045b565b60405180910390fd5b60003411620000e2576040517f08c379a0000000000000000000000000000000000000000000000000000000008152600401620000d99062000439565b60405180910390fd5b826000806101000a81548173ffffffffffffffffffffffffffffffffffffffff021916908373ffffffffffffffffffffffffffffffffffffffff16021790555033600160006101000a81548173ffffffffffffffffffffffffffffffffffffffff021916908373ffffffffffffffffffffffffffffffffffffffff16021790555081600290805190602001906200017b929190620001f0565b50806003819055503460008054906101000a900473ffffffffffffffffffffffffffffffffffffffff1673ffffffffffffffffffffffffffffffffffffffff167f8251ca8e4b583a0e3a2ee4c1f22b424bdfd057bc5449b2041ba41d06641025a560405160405180910390a350505062000591565b828054600181600116156101000203166002900490600052602060002090601f016020900481019282601f106200023357805160ff191683800117855562000264565b8280016001018555821562000264579182015b828111156200026357825182559160200191906001019062000246565b5b50905062000273919062000277565b5090565b5b808211156200029257600081600090555060010162000278565b5090565b600081519050620002a7816200055d565b92915050565b600082601f830112620002bf57600080fd5b8151620002d6620002d082620004ab565b6200047d565b91508082526020830160208301858383011115620002f357600080fd5b6200030083828462000527565b50505092915050565b6000815190506200031a8162000577565b92915050565b6000806000606084860312156200033657600080fd5b6000620003468682870162000296565b935050602084015167ffffffffffffffff8111156200036457600080fd5b6200037286828701620002ad565b9250506040620003858682870162000309565b9150509250925092565b60006200039e602183620004d8565b91507f50726f647563743a20616d6f756e742067726561746572207468616e207a657260008301527f6f000000000000000000000000000000000000000000000000000000000000006020830152604082019050919050565b600062000406601e83620004d8565b91507f50726f647563743a20496e76616c6964206f776e6572206164647265737300006000830152602082019050919050565b6000602082019050818103600083015262000454816200038f565b9050919050565b600060208201905081810360008301526200047681620003f7565b9050919050565b6000604051905081810181811067ffffffffffffffff82111715620004a157600080fd5b8060405250919050565b600067ffffffffffffffff821115620004c357600080fd5b601f19601f8301169050602081019050919050565b600082825260208201905092915050565b6000620004f682620004fd565b9050919050565b600073ffffffffffffffffffffffffffffffffffffffff82169050919050565b6000819050919050565b60005b83811015620005475780820151818401526020810190506200052a565b8381111562000557576000848401525b50505050565b6200056881620004e9565b81146200057457600080fd5b50565b62000582816200051d565b81146200058e57600080fd5b50565b610d1780620005a16000396000f3fe6080604052600436106100865760003560e01c80639497d3ae116100595780639497d3ae14610137578063c45a015514610162578063c935a2411461018d578063dfaf0221146101ca578063f67afb7c146101f557610086565b8063533906711461008b578063542540ce146100b65780637f7650eb146100e15780638da5cb5b1461010c575b600080fd5b34801561009757600080fd5b506100a0610225565b6040516100ad9190610a9f565b60405180910390f35b3480156100c257600080fd5b506100cb61030e565b6040516100d89190610b3e565b60405180910390f35b3480156100ed57600080fd5b506100f6610318565b6040516101039190610adc565b60405180910390f35b34801561011857600080fd5b506101216103b6565b60405161012e9190610a84565b60405180910390f35b34801561014357600080fd5b5061014c6103da565b6040516101599190610b3e565b60405180910390f35b34801561016e57600080fd5b506101776103e0565b6040516101849190610a84565b60405180910390f35b34801561019957600080fd5b506101b460048036038101906101af919061088d565b610406565b6040516101c19190610adc565b60405180910390f35b3480156101d657600080fd5b506101df6104bf565b6040516101ec9190610adc565b60405180910390f35b61020f600480360381019061020a9190610839565b610561565b60405161021c9190610ac1565b60405180910390f35b60606005805480602002602001604051908101604052809291908181526020016000905b82821015610305578382906000526020600020018054600181600116156101000203166002900480601f0160208091040260200160405190810160405280929190818152602001828054600181600116156101000203166002900480156102f15780601f106102c6576101008083540402835291602001916102f1565b820191906000526020600020905b8154815290600101906020018083116102d457829003601f168201915b505050505081526020019060010190610249565b50505050905090565b6000600354905090565b60028054600181600116156101000203166002900480601f0160208091040260200160405190810160405280929190818152602001828054600181600116156101000203166002900480156103ae5780601f10610383576101008083540402835291602001916103ae565b820191906000526020600020905b81548152906001019060200180831161039157829003601f168201915b505050505081565b60008054906101000a900473ffffffffffffffffffffffffffffffffffffffff1681565b60035481565b600160009054906101000a900473ffffffffffffffffffffffffffffffffffffffff1681565b6005818154811061041357fe5b906000526020600020016000915090508054600181600116156101000203166002900480601f0160208091040260200160405190810160405280929190818152602001828054600181600116156101000203166002900480156104b75780601f1061048c576101008083540402835291602001916104b7565b820191906000526020600020905b81548152906001019060200180831161049a57829003601f168201915b505050505081565b606060028054600181600116156101000203166002900480601f0160208091040260200160405190810160405280929190818152602001828054600181600116156101000203166002900480156105575780601f1061052c57610100808354040283529160200191610557565b820191906000526020600020905b81548152906001019060200180831161053a57829003601f168201915b5050505050905090565b600060035434146105a7576040517f08c379a000000000000000000000000000000000000000000000000000000000815260040161059e90610afe565b60405180910390fd5b60008054906101000a900473ffffffffffffffffffffffffffffffffffffffff1673ffffffffffffffffffffffffffffffffffffffff163373ffffffffffffffffffffffffffffffffffffffff161415610636576040517f08c379a000000000000000000000000000000000000000000000000000000000815260040161062d90610b1e565b60405180910390fd5b6004839080600181540180825580915050600190039060005260206000200160009091909190916101000a81548173ffffffffffffffffffffffffffffffffffffffff021916908373ffffffffffffffffffffffffffffffffffffffff1602179055506005829080600181540180825580915050600190039060005260206000200160009091909190915090805190602001906106d492919061071e565b50600033905060008173ffffffffffffffffffffffffffffffffffffffff166108fc349081150290604051600060405180830381858888f193505050509050809250505092915050565b828054600181600116156101000203166002900490600052602060002090601f016020900481019282601f1061075f57805160ff191683800117855561078d565b8280016001018555821561078d579182015b8281111561078c578251825591602001919060010190610771565b5b50905061079a919061079e565b5090565b5b808211156107b757600081600090555060010161079f565b5090565b6000813590506107ca81610cb3565b92915050565b600082601f8301126107e157600080fd5b81356107f46107ef82610b86565b610b59565b9150808252602083016020830185838301111561081057600080fd5b61081b838284610c60565b50505092915050565b60008135905061083381610cca565b92915050565b6000806040838503121561084c57600080fd5b600061085a858286016107bb565b925050602083013567ffffffffffffffff81111561087757600080fd5b610883858286016107d0565b9150509250929050565b60006020828403121561089f57600080fd5b60006108ad84828501610824565b91505092915050565b60006108c2838361095d565b905092915050565b6108d381610c18565b82525050565b60006108e482610bc2565b6108ee8185610be5565b93508360208202850161090085610bb2565b8060005b8581101561093c578484038952815161091d85826108b6565b945061092883610bd8565b925060208a01995050600181019050610904565b50829750879550505050505092915050565b61095781610c2a565b82525050565b600061096882610bcd565b6109728185610bf6565b9350610982818560208601610c6f565b61098b81610ca2565b840191505092915050565b60006109a182610bcd565b6109ab8185610c07565b93506109bb818560208601610c6f565b6109c481610ca2565b840191505092915050565b60006109dc601b83610c07565b91507f50726f647563743a496e73756666696369656e742066756e64732e00000000006000830152602082019050919050565b6000610a1c602483610c07565b91507f50726f647563743a4f776e65722063616e6e6f7420627579207468652070726f60008301527f64756374000000000000000000000000000000000000000000000000000000006020830152604082019050919050565b610a7e81610c56565b82525050565b6000602082019050610a9960008301846108ca565b92915050565b60006020820190508181036000830152610ab981846108d9565b905092915050565b6000602082019050610ad6600083018461094e565b92915050565b60006020820190508181036000830152610af68184610996565b905092915050565b60006020820190508181036000830152610b17816109cf565b9050919050565b60006020820190508181036000830152610b3781610a0f565b9050919050565b6000602082019050610b536000830184610a75565b92915050565b6000604051905081810181811067ffffffffffffffff82111715610b7c57600080fd5b8060405250919050565b600067ffffffffffffffff821115610b9d57600080fd5b601f19601f8301169050602081019050919050565b6000819050602082019050919050565b600081519050919050565b600081519050919050565b6000602082019050919050565b600082825260208201905092915050565b600082825260208201905092915050565b600082825260208201905092915050565b6000610c2382610c36565b9050919050565b60008115159050919050565b600073ffffffffffffffffffffffffffffffffffffffff82169050919050565b6000819050919050565b82818337600083830152505050565b60005b83811015610c8d578082015181840152602081019050610c72565b83811115610c9c576000848401525b50505050565b6000601f19601f8301169050919050565b610cbc81610c18565b8114610cc757600080fd5b50565b610cd381610c56565b8114610cde57600080fd5b5056fea2646970667358221220888827e07b2a4d4140069a5f7004747dfbc63504d0e6ce15ba502015dc813e0264736f6c634300060c0033",
  "immutableReferences": {},
  "source": "// SPDX-License-Identifier: MIT\n\npragma solidity ^0.6.10;\npragma experimental ABIEncoderV2;\n\ncontract Product {\n\n    address public owner;\n    address public factory;\n    string public productName;\n    uint public productPrice;\n    address[] private _productCustomers;\n    string[] public productAccountNames;\n\n    event ProductInitialized(address indexed owner, uint indexed surveyReward);\n\n    constructor(address _owner , string memory _productName , uint _productPrice) payable public {\n        require(_owner != address(0),\"Product: Invalid owner address\");\n        require(msg.value > 0, \"Product: amount greater than zero\");\n        owner = _owner;\n        factory = msg.sender;\n        productName = _productName;\n        productPrice = _productPrice;\n        emit ProductInitialized(owner,msg.value);\n    }\n\n    function addUserProduct(address _userAddress , string memory _userAccount) external payable returns(bool){\n        require(msg.value == productPrice, \"Product:Insufficient funds.\");\n        require(msg.sender != owner , \"Product:Owner cannot buy the product\");\n        _productCustomers.push(_userAddress);\n        productAccountNames.push(_userAccount);\n        address payable customer = msg.sender;\n        bool result = customer.send(msg.value);\n        return result;\n    }\n\n    function getProductName() public view returns(string memory){\n        return productName;\n    }\n\n    function getProductPrice() public view returns(uint){\n        return productPrice;\n    }\n\n    function getProductUsers() public view returns(string[] memory){\n        return productAccountNames;\n    }\n}",
  "sourcePath": "C:\\Users\\Patterson Thamba\\Desktop\\Dapp-II-master\\IndyDevs Project\\contracts\\Product.sol",
  "compiler": {
    "name": "solc",
    "version": "0.6.12+commit.27d51765.Emscripten.clang"
  },
  "schemaVersion": "3.2.3",
  "updatedAt": "2020-08-15T21:32:43.307Z",
  "devdoc": {
    "kind": "dev",
    "methods": {},
    "version": 1
  },
  "userdoc": {
    "kind": "user",
    "methods": {},
    "version": 1
  }
}