{
  "contractName": "SurveyFactory",
  "abi": [
    {
      "inputs": [
        {
          "internalType": "uint256",
          "name": "_surveyCreationFees",
          "type": "uint256"
        }
      ],
      "stateMutability": "nonpayable",
      "type": "constructor"
    },
    {
      "anonymous": false,
      "inputs": [
        {
          "indexed": true,
          "internalType": "address",
          "name": "previousOwner",
          "type": "address"
        },
        {
          "indexed": true,
          "internalType": "address",
          "name": "newOwner",
          "type": "address"
        }
      ],
      "name": "OwnershipTransferred",
      "type": "event"
    },
    {
      "anonymous": false,
      "inputs": [
        {
          "indexed": true,
          "internalType": "uint256",
          "name": "surveyId",
          "type": "uint256"
        },
        {
          "indexed": true,
          "internalType": "address",
          "name": "newSurveyAddress",
          "type": "address"
        }
      ],
      "name": "SurveyCreated",
      "type": "event"
    },
    {
      "anonymous": false,
      "inputs": [
        {
          "indexed": true,
          "internalType": "uint256",
          "name": "surveyCreationFees",
          "type": "uint256"
        }
      ],
      "name": "SurveyFactoryInitialized",
      "type": "event"
    },
    {
      "anonymous": false,
      "inputs": [
        {
          "indexed": true,
          "internalType": "uint256",
          "name": "surveyCreationFees",
          "type": "uint256"
        }
      ],
      "name": "SurveyFactoryinitialized",
      "type": "event"
    },
    {
      "inputs": [],
      "name": "owner",
      "outputs": [
        {
          "internalType": "address",
          "name": "",
          "type": "address"
        }
      ],
      "stateMutability": "view",
      "type": "function",
      "constant": true
    },
    {
      "inputs": [],
      "name": "renounceOwnership",
      "outputs": [],
      "stateMutability": "nonpayable",
      "type": "function"
    },
    {
      "inputs": [],
      "name": "surveyCreationFees",
      "outputs": [
        {
          "internalType": "uint256",
          "name": "",
          "type": "uint256"
        }
      ],
      "stateMutability": "view",
      "type": "function",
      "constant": true
    },
    {
      "inputs": [
        {
          "internalType": "uint256",
          "name": "",
          "type": "uint256"
        }
      ],
      "name": "surveyToOwner",
      "outputs": [
        {
          "internalType": "address",
          "name": "",
          "type": "address"
        }
      ],
      "stateMutability": "view",
      "type": "function",
      "constant": true
    },
    {
      "inputs": [
        {
          "internalType": "uint256",
          "name": "",
          "type": "uint256"
        }
      ],
      "name": "surveys",
      "outputs": [
        {
          "internalType": "address",
          "name": "",
          "type": "address"
        }
      ],
      "stateMutability": "view",
      "type": "function",
      "constant": true
    },
    {
      "inputs": [
        {
          "internalType": "address",
          "name": "newOwner",
          "type": "address"
        }
      ],
      "name": "transferOwnership",
      "outputs": [],
      "stateMutability": "nonpayable",
      "type": "function"
    },
    {
      "inputs": [],
      "name": "createSurvey",
      "outputs": [
        {
          "internalType": "uint256",
          "name": "surveyId",
          "type": "uint256"
        },
        {
          "internalType": "address",
          "name": "newSurveyAddress",
          "type": "address"
        }
      ],
      "stateMutability": "payable",
      "type": "function",
      "payable": true
    },
    {
      "inputs": [],
      "name": "getAllSurveys",
      "outputs": [
        {
          "internalType": "address[]",
          "name": "",
          "type": "address[]"
        }
      ],
      "stateMutability": "view",
      "type": "function",
      "constant": true
    }
  ],
  "bytecode": "0x608060405234801561001057600080fd5b5060405161103b38038061103b8339818101604052602081101561003357600080fd5b8101908080519060200190929190505050600061005461012e60201b60201c565b9050806000806101000a81548173ffffffffffffffffffffffffffffffffffffffff021916908373ffffffffffffffffffffffffffffffffffffffff1602179055508073ffffffffffffffffffffffffffffffffffffffff16600073ffffffffffffffffffffffffffffffffffffffff167f8be0079c531659141344cd1fd0a4f28419497f9722a3daafe3b4186f6b6457e060405160405180910390a350806001819055506001547ff184369f39717f266f1bf357eb0874181686f3e1fc282ae9605ba4bfd30635bb60405160405180910390a250610136565b600033905090565b610ef6806101456000396000f3fe60806040526004361061007b5760003560e01c80638da5cb5b1161004e5780638da5cb5b146101cd578063a934bafe1461020e578063c65dfc9f14610239578063f2fde38b146102745761007b565b8063715018a6146100805780637a1bc375146100975780637edfbbd11461010357806386e68b9014610168575b600080fd5b34801561008c57600080fd5b506100956102c5565b005b3480156100a357600080fd5b506100ac61044b565b6040518080602001828103825283818151815260200191508051906020019060200280838360005b838110156100ef5780820151818401526020810190506100d4565b505050509050019250505060405180910390f35b34801561010f57600080fd5b5061013c6004803603602081101561012657600080fd5b81019080803590602001909291905050506104d9565b604051808273ffffffffffffffffffffffffffffffffffffffff16815260200191505060405180910390f35b34801561017457600080fd5b506101a16004803603602081101561018b57600080fd5b810190808035906020019092919050505061050c565b604051808273ffffffffffffffffffffffffffffffffffffffff16815260200191505060405180910390f35b3480156101d957600080fd5b506101e2610548565b604051808273ffffffffffffffffffffffffffffffffffffffff16815260200191505060405180910390f35b34801561021a57600080fd5b50610223610571565b6040518082815260200191505060405180910390f35b610241610577565b604051808381526020018273ffffffffffffffffffffffffffffffffffffffff1681526020019250505060405180910390f35b34801561028057600080fd5b506102c36004803603602081101561029757600080fd5b81019080803573ffffffffffffffffffffffffffffffffffffffff169060200190929190505050610810565b005b6102cd610a1b565b73ffffffffffffffffffffffffffffffffffffffff1660008054906101000a900473ffffffffffffffffffffffffffffffffffffffff1673ffffffffffffffffffffffffffffffffffffffff161461038d576040517f08c379a00000000000000000000000000000000000000000000000000000000081526004018080602001828103825260208152602001807f4f776e61626c653a2063616c6c6572206973206e6f7420746865206f776e657281525060200191505060405180910390fd5b600073ffffffffffffffffffffffffffffffffffffffff1660008054906101000a900473ffffffffffffffffffffffffffffffffffffffff1673ffffffffffffffffffffffffffffffffffffffff167f8be0079c531659141344cd1fd0a4f28419497f9722a3daafe3b4186f6b6457e060405160405180910390a360008060006101000a81548173ffffffffffffffffffffffffffffffffffffffff021916908373ffffffffffffffffffffffffffffffffffffffff160217905550565b606060028054806020026020016040519081016040528092919081815260200182805480156104cf57602002820191906000526020600020905b8160009054906101000a900473ffffffffffffffffffffffffffffffffffffffff1673ffffffffffffffffffffffffffffffffffffffff1681526020019060010190808311610485575b5050505050905090565b60036020528060005260406000206000915054906101000a900473ffffffffffffffffffffffffffffffffffffffff1681565b6002818154811061051957fe5b906000526020600020016000915054906101000a900473ffffffffffffffffffffffffffffffffffffffff1681565b60008060009054906101000a900473ffffffffffffffffffffffffffffffffffffffff16905090565b60015481565b600080610582610548565b73ffffffffffffffffffffffffffffffffffffffff163373ffffffffffffffffffffffffffffffffffffffff161415610623576040517f08c379a00000000000000000000000000000000000000000000000000000000081526004018080602001828103825260198152602001807f537572766579466163746f72793a20726573747269637465640000000000000081525060200191505060405180910390fd5b600154341161069a576040517f08c379a00000000000000000000000000000000000000000000000000000000081526004018080602001828103825260208152602001807f537572766579466163746f72793a204e6f7420656e6f7567682065746865727381525060200191505060405180910390fd5b60006106b160015434610a2390919063ffffffff16565b9050600081336040516106c390610b2d565b808273ffffffffffffffffffffffffffffffffffffffff1681526020019150506040518091039082f0905080158015610700573d6000803e3d6000fd5b5090508092506002839080600181540180825580915050600190039060005260206000200160009091909190916101000a81548173ffffffffffffffffffffffffffffffffffffffff021916908373ffffffffffffffffffffffffffffffffffffffff1602179055506001600280549050039350336003600086815260200190815260200160002060006101000a81548173ffffffffffffffffffffffffffffffffffffffff021916908373ffffffffffffffffffffffffffffffffffffffff1602179055508273ffffffffffffffffffffffffffffffffffffffff16847f9158c4b8b7fff567a0a975ca3187331e08a50d8f2a1f04e986ac1e6e86e8212c60405160405180910390a350509091565b610818610a1b565b73ffffffffffffffffffffffffffffffffffffffff1660008054906101000a900473ffffffffffffffffffffffffffffffffffffffff1673ffffffffffffffffffffffffffffffffffffffff16146108d8576040517f08c379a00000000000000000000000000000000000000000000000000000000081526004018080602001828103825260208152602001807f4f776e61626c653a2063616c6c6572206973206e6f7420746865206f776e657281525060200191505060405180910390fd5b600073ffffffffffffffffffffffffffffffffffffffff168173ffffffffffffffffffffffffffffffffffffffff16141561095e576040517f08c379a0000000000000000000000000000000000000000000000000000000008152600401808060200182810382526026815260200180610e9b6026913960400191505060405180910390fd5b8073ffffffffffffffffffffffffffffffffffffffff1660008054906101000a900473ffffffffffffffffffffffffffffffffffffffff1673ffffffffffffffffffffffffffffffffffffffff167f8be0079c531659141344cd1fd0a4f28419497f9722a3daafe3b4186f6b6457e060405160405180910390a3806000806101000a81548173ffffffffffffffffffffffffffffffffffffffff021916908373ffffffffffffffffffffffffffffffffffffffff16021790555050565b600033905090565b6000610a6583836040518060400160405280601e81526020017f536166654d6174683a207375627472616374696f6e206f766572666c6f770000815250610a6d565b905092915050565b6000838311158290610b1a576040517f08c379a00000000000000000000000000000000000000000000000000000000081526004018080602001828103825283818151815260200191508051906020019080838360005b83811015610adf578082015181840152602081019050610ac4565b50505050905090810190601f168015610b0c5780820380516001836020036101000a031916815260200191505b509250505060405180910390fd5b5060008385039050809150509392505050565b61036080610b3b8339019056fe60806040526040516103603803806103608339818101604052602081101561002657600080fd5b8101908080519060200190929190505050600073ffffffffffffffffffffffffffffffffffffffff168173ffffffffffffffffffffffffffffffffffffffff1614156100da576040517f08c379a000000000000000000000000000000000000000000000000000000000815260040180806020018281038252601d8152602001807f5375727665793a20496e76616c6964206f776e6572206164647265737300000081525060200191505060405180910390fd5b60003411610150576040517f08c379a00000000000000000000000000000000000000000000000000000000081526004018080602001828103825260208152602001807f5375727665793a20616d6f756e742067726561746572207468616e207a65726f81525060200191505060405180910390fd5b806000806101000a81548173ffffffffffffffffffffffffffffffffffffffff021916908373ffffffffffffffffffffffffffffffffffffffff16021790555033600160006101000a81548173ffffffffffffffffffffffffffffffffffffffff021916908373ffffffffffffffffffffffffffffffffffffffff1602179055503460008054906101000a900473ffffffffffffffffffffffffffffffffffffffff1673ffffffffffffffffffffffffffffffffffffffff167f51cc12d146311daa1c27922fa9e4d8ab1b86db5194fa326537b50d6659ef84d160405160405180910390a35061011b806102456000396000f3fe6080604052348015600f57600080fd5b506004361060325760003560e01c80638da5cb5b146037578063c45a0155146069575b600080fd5b603d609b565b604051808273ffffffffffffffffffffffffffffffffffffffff16815260200191505060405180910390f35b606f60bf565b604051808273ffffffffffffffffffffffffffffffffffffffff16815260200191505060405180910390f35b60008054906101000a900473ffffffffffffffffffffffffffffffffffffffff1681565b600160009054906101000a900473ffffffffffffffffffffffffffffffffffffffff168156fea26469706673582212202f49e28786aabfd850f63c6f5965f704117286cb37ba826d949293f99ef9ac0964736f6c634300060c00334f776e61626c653a206e6577206f776e657220697320746865207a65726f2061646472657373a2646970667358221220911859944a157a709830083ac915959e0cebbeff40a258a3e8bb4cf2ef6621cb64736f6c634300060c0033",
  "immutableReferences": {},
  "source": "// SPDX-License-Identifier: MIT\n\npragma solidity >0.4.0 <0.7.0;\n\nimport \"./Survey.sol\";\nimport \"../node_modules/@openzeppelin/contracts/math/SafeMath.sol\";\nimport \"../node_modules/@openzeppelin/contracts/access/Ownable.sol\";\n\ncontract SurveyFactory is Ownable {\n\n    using SafeMath for uint;\n    uint public surveyCreationFees;\n    address[] public surveys;\n    mapping(uint => address) public surveyToOwner;\n    event SurveyFactoryinitialized(uint indexed surveyCreationFees);\n\n    constructor(uint _surveyCreationFees) public {\n        surveyCreationFees = _surveyCreationFees;\n        emit SurveyFactoryInitialized(surveyCreationFees);\n    }\n\n    modifier notTheOwner(){\n        require(msg.sender != owner(),\"SurveyFactory: restricted\");\n        _;\n    }\n\n    function createSurvey() external notTheOwner  payable returns(uint surveyId, address newSurveyAddress) {\n        require(msg.value > surveyCreationFees,\"SurveyFactory: Not enough ethers\");\n        uint surveyReward = msg.value.sub(surveyCreationFees);\n        Survey  newSurvey = new Survey{value:surveyReward}(msg.sender);\n        newSurveyAddress = address(newSurvey);\n        surveys.push(newSurveyAddress);\n        surveyId = surveys.length - 1;\n        surveyToOwner[surveyId] = msg.sender;\n        emit SurveyCreated(surveyId, newSurveyAddress);\n    }\n\n    function getAllSurveys() public view returns(address[] memory){\n        return surveys;\n    }\n\n    event SurveyCreated(uint indexed surveyId, address indexed newSurveyAddress);\n    event SurveyFactoryInitialized(uint indexed surveyCreationFees);\n}\n",
  "sourcePath": "C:/Users/Patterson Thamba/Desktop/Dapp-II-master/survey-marketplace-truffle/contracts/SurveyFactory.sol",
  "compiler": {
    "name": "solc",
    "version": "0.6.12+commit.27d51765.Emscripten.clang"
  },
  "schemaVersion": "3.2.3",
  "updatedAt": "2020-08-12T01:39:39.825Z",
  "networkType": "ethereum",
  "devdoc": {
    "kind": "dev",
    "methods": {
      "owner()": {
        "details": "Returns the address of the current owner."
      },
      "renounceOwnership()": {
        "details": "Leaves the contract without owner. It will not be possible to call `onlyOwner` functions anymore. Can only be called by the current owner. NOTE: Renouncing ownership will leave the contract without an owner, thereby removing any functionality that is only available to the owner."
      },
      "transferOwnership(address)": {
        "details": "Transfers ownership of the contract to a new account (`newOwner`). Can only be called by the current owner."
      }
    },
    "version": 1
  },
  "userdoc": {
    "kind": "user",
    "methods": {},
    "version": 1
  }
}