{
  "contractName": "Survey",
  "abi": [
    {
      "inputs": [
        {
          "internalType": "address",
          "name": "_owner",
          "type": "address"
        }
      ],
      "stateMutability": "payable",
      "type": "constructor"
    },
    {
      "anonymous": false,
      "inputs": [
        {
          "indexed": true,
          "internalType": "address",
          "name": "owner",
          "type": "address"
        },
        {
          "indexed": true,
          "internalType": "uint256",
          "name": "surveyReward",
          "type": "uint256"
        }
      ],
      "name": "SurveyInitialized",
      "type": "event"
    },
    {
      "inputs": [],
      "name": "factory",
      "outputs": [
        {
          "internalType": "address",
          "name": "",
          "type": "address"
        }
      ],
      "stateMutability": "view",
      "type": "function"
    },
    {
      "inputs": [],
      "name": "owner",
      "outputs": [
        {
          "internalType": "address",
          "name": "",
          "type": "address"
        }
      ],
      "stateMutability": "view",
      "type": "function"
    }
  ],
  "bytecode": "0x60806040526040516103603803806103608339818101604052602081101561002657600080fd5b8101908080519060200190929190505050600073ffffffffffffffffffffffffffffffffffffffff168173ffffffffffffffffffffffffffffffffffffffff1614156100da576040517f08c379a000000000000000000000000000000000000000000000000000000000815260040180806020018281038252601d8152602001807f5375727665793a20496e76616c6964206f776e6572206164647265737300000081525060200191505060405180910390fd5b60003411610150576040517f08c379a00000000000000000000000000000000000000000000000000000000081526004018080602001828103825260208152602001807f5375727665793a20616d6f756e742067726561746572207468616e207a65726f81525060200191505060405180910390fd5b806000806101000a81548173ffffffffffffffffffffffffffffffffffffffff021916908373ffffffffffffffffffffffffffffffffffffffff16021790555033600160006101000a81548173ffffffffffffffffffffffffffffffffffffffff021916908373ffffffffffffffffffffffffffffffffffffffff1602179055503460008054906101000a900473ffffffffffffffffffffffffffffffffffffffff1673ffffffffffffffffffffffffffffffffffffffff167f51cc12d146311daa1c27922fa9e4d8ab1b86db5194fa326537b50d6659ef84d160405160405180910390a35061011b806102456000396000f3fe6080604052348015600f57600080fd5b506004361060325760003560e01c80638da5cb5b146037578063c45a0155146069575b600080fd5b603d609b565b604051808273ffffffffffffffffffffffffffffffffffffffff16815260200191505060405180910390f35b606f60bf565b604051808273ffffffffffffffffffffffffffffffffffffffff16815260200191505060405180910390f35b60008054906101000a900473ffffffffffffffffffffffffffffffffffffffff1681565b600160009054906101000a900473ffffffffffffffffffffffffffffffffffffffff168156fea26469706673582212202f49e28786aabfd850f63c6f5965f704117286cb37ba826d949293f99ef9ac0964736f6c634300060c0033",
  "immutableReferences": {},
  "source": "// SPDX-License-Identifier: MIT\n\npragma solidity ^0.6.10;\n\ncontract Survey {\n\n    address public owner;\n    address public factory;\n\n    event SurveyInitialized(address indexed owner, uint indexed surveyReward);\n\n    constructor(address _owner) payable public {\n        require(_owner != address(0),\"Survey: Invalid owner address\");\n        require(msg.value > 0, \"Survey: amount greater than zero\");\n        owner = _owner;\n        factory = msg.sender;\n        emit SurveyInitialized(owner,msg.value);\n    }\n}",
  "sourcePath": "C:\\Users\\Patterson Thamba\\Desktop\\Dapp-II-master\\survey-marketplace-truffle\\contracts\\Survey.sol",
  "compiler": {
    "name": "solc",
    "version": "0.6.12+commit.27d51765.Emscripten.clang"
  },
  "schemaVersion": "3.2.3",
  "updatedAt": "2020-08-12T01:39:33.821Z",
  "devdoc": {
    "kind": "dev",
    "methods": {},
    "version": 1
  },
  "userdoc": {
    "kind": "user",
    "methods": {},
    "version": 1
  }
}